{
  "_format": "hh-sol-artifact-1",
  "contractName": "NEW_ERC20",
  "sourceName": "contracts/newERC20.sol",
  "abi": [
    {
      "inputs": [
        {
          "internalType": "string",
          "name": "tokenName",
          "type": "string"
        },
        {
          "internalType": "string",
          "name": "tokenSymbol",
          "type": "string"
        },
        {
          "internalType": "uint8",
          "name": "_tokenDecimals",
          "type": "uint8"
        },
        {
          "internalType": "uint256",
          "name": "_maxTokens",
          "type": "uint256"
        },
        {
          "internalType": "uint256",
          "name": "_initBalance",
          "type": "uint256"
        }
      ],
      "stateMutability": "nonpayable",
      "type": "constructor"
    },
    {
      "anonymous": false,
      "inputs": [
        {
          "indexed": true,
          "internalType": "address",
          "name": "owner",
          "type": "address"
        },
        {
          "indexed": true,
          "internalType": "address",
          "name": "spender",
          "type": "address"
        },
        {
          "indexed": false,
          "internalType": "uint256",
          "name": "value",
          "type": "uint256"
        }
      ],
      "name": "Approval",
      "type": "event"
    },
    {
      "anonymous": false,
      "inputs": [
        {
          "indexed": true,
          "internalType": "address",
          "name": "from",
          "type": "address"
        },
        {
          "indexed": true,
          "internalType": "address",
          "name": "to",
          "type": "address"
        },
        {
          "indexed": false,
          "internalType": "uint256",
          "name": "value",
          "type": "uint256"
        }
      ],
      "name": "Transfer",
      "type": "event"
    },
    {
      "inputs": [
        {
          "internalType": "address",
          "name": "owner",
          "type": "address"
        },
        {
          "internalType": "address",
          "name": "spender",
          "type": "address"
        }
      ],
      "name": "allowance",
      "outputs": [
        {
          "internalType": "uint256",
          "name": "",
          "type": "uint256"
        }
      ],
      "stateMutability": "view",
      "type": "function"
    },
    {
      "inputs": [
        {
          "internalType": "address",
          "name": "spender",
          "type": "address"
        },
        {
          "internalType": "uint256",
          "name": "amount",
          "type": "uint256"
        }
      ],
      "name": "approve",
      "outputs": [
        {
          "internalType": "bool",
          "name": "",
          "type": "bool"
        }
      ],
      "stateMutability": "nonpayable",
      "type": "function"
    },
    {
      "inputs": [
        {
          "internalType": "address",
          "name": "account",
          "type": "address"
        }
      ],
      "name": "balanceOf",
      "outputs": [
        {
          "internalType": "uint256",
          "name": "",
          "type": "uint256"
        }
      ],
      "stateMutability": "view",
      "type": "function"
    },
    {
      "inputs": [],
      "name": "decimals",
      "outputs": [
        {
          "internalType": "uint8",
          "name": "",
          "type": "uint8"
        }
      ],
      "stateMutability": "view",
      "type": "function"
    },
    {
      "inputs": [
        {
          "internalType": "address",
          "name": "spender",
          "type": "address"
        },
        {
          "internalType": "uint256",
          "name": "subtractedValue",
          "type": "uint256"
        }
      ],
      "name": "decreaseAllowance",
      "outputs": [
        {
          "internalType": "bool",
          "name": "",
          "type": "bool"
        }
      ],
      "stateMutability": "nonpayable",
      "type": "function"
    },
    {
      "inputs": [
        {
          "internalType": "address",
          "name": "spender",
          "type": "address"
        },
        {
          "internalType": "uint256",
          "name": "addedValue",
          "type": "uint256"
        }
      ],
      "name": "increaseAllowance",
      "outputs": [
        {
          "internalType": "bool",
          "name": "",
          "type": "bool"
        }
      ],
      "stateMutability": "nonpayable",
      "type": "function"
    },
    {
      "inputs": [],
      "name": "maxTokens",
      "outputs": [
        {
          "internalType": "uint256",
          "name": "",
          "type": "uint256"
        }
      ],
      "stateMutability": "view",
      "type": "function"
    },
    {
      "inputs": [
        {
          "internalType": "uint256",
          "name": "amount",
          "type": "uint256"
        }
      ],
      "name": "mint",
      "outputs": [],
      "stateMutability": "nonpayable",
      "type": "function"
    },
    {
      "inputs": [],
      "name": "name",
      "outputs": [
        {
          "internalType": "string",
          "name": "",
          "type": "string"
        }
      ],
      "stateMutability": "view",
      "type": "function"
    },
    {
      "inputs": [],
      "name": "symbol",
      "outputs": [
        {
          "internalType": "string",
          "name": "",
          "type": "string"
        }
      ],
      "stateMutability": "view",
      "type": "function"
    },
    {
      "inputs": [],
      "name": "tokenOwner",
      "outputs": [
        {
          "internalType": "address payable",
          "name": "",
          "type": "address"
        }
      ],
      "stateMutability": "view",
      "type": "function"
    },
    {
      "inputs": [],
      "name": "totalSupply",
      "outputs": [
        {
          "internalType": "uint256",
          "name": "",
          "type": "uint256"
        }
      ],
      "stateMutability": "view",
      "type": "function"
    },
    {
      "inputs": [
        {
          "internalType": "address",
          "name": "to",
          "type": "address"
        },
        {
          "internalType": "uint256",
          "name": "amount",
          "type": "uint256"
        }
      ],
      "name": "transfer",
      "outputs": [
        {
          "internalType": "bool",
          "name": "",
          "type": "bool"
        }
      ],
      "stateMutability": "nonpayable",
      "type": "function"
    },
    {
      "inputs": [
        {
          "internalType": "address",
          "name": "from",
          "type": "address"
        },
        {
          "internalType": "address",
          "name": "to",
          "type": "address"
        },
        {
          "internalType": "uint256",
          "name": "amount",
          "type": "uint256"
        }
      ],
      "name": "transferFrom",
      "outputs": [
        {
          "internalType": "bool",
          "name": "",
          "type": "bool"
        }
      ],
      "stateMutability": "nonpayable",
      "type": "function"
    }
  ],
  "bytecode": "0x60806040523480156200001157600080fd5b506040516200206c3803806200206c8339818101604052810190620000379190620004e4565b848481600390816200004a9190620007eb565b5080600490816200005c9190620007eb565b50505033600560006101000a81548173ffffffffffffffffffffffffffffffffffffffff021916908373ffffffffffffffffffffffffffffffffffffffff16021790555082600560146101000a81548160ff021916908360ff16021790555081600681905550620000d381620000de60201b60201c565b505050505062000a5f565b60065481620000f26200015760201b60201c565b620000fe919062000901565b111562000142576040517f08c379a000000000000000000000000000000000000000000000000000000000815260040162000139906200099d565b60405180910390fd5b6200015433826200016160201b60201c565b50565b6000600254905090565b600073ffffffffffffffffffffffffffffffffffffffff168273ffffffffffffffffffffffffffffffffffffffff1603620001d3576040517f08c379a0000000000000000000000000000000000000000000000000000000008152600401620001ca9062000a0f565b60405180910390fd5b620001e760008383620002ce60201b60201c565b8060026000828254620001fb919062000901565b92505081905550806000808473ffffffffffffffffffffffffffffffffffffffff1673ffffffffffffffffffffffffffffffffffffffff168152602001908152602001600020600082825401925050819055508173ffffffffffffffffffffffffffffffffffffffff16600073ffffffffffffffffffffffffffffffffffffffff167fddf252ad1be2c89b69c2b068fc378daa952ba7f163c4a11628f55a4df523b3ef83604051620002ae919062000a42565b60405180910390a3620002ca60008383620002d360201b60201c565b5050565b505050565b505050565b6000604051905090565b600080fd5b600080fd5b600080fd5b600080fd5b6000601f19601f8301169050919050565b7f4e487b7100000000000000000000000000000000000000000000000000000000600052604160045260246000fd5b6200034182620002f6565b810181811067ffffffffffffffff8211171562000363576200036262000307565b5b80604052505050565b600062000378620002d8565b905062000386828262000336565b919050565b600067ffffffffffffffff821115620003a957620003a862000307565b5b620003b482620002f6565b9050602081019050919050565b60005b83811015620003e1578082015181840152602081019050620003c4565b60008484015250505050565b600062000404620003fe846200038b565b6200036c565b905082815260208101848484011115620004235762000422620002f1565b5b62000430848285620003c1565b509392505050565b600082601f83011262000450576200044f620002ec565b5b815162000462848260208601620003ed565b91505092915050565b600060ff82169050919050565b62000483816200046b565b81146200048f57600080fd5b50565b600081519050620004a38162000478565b92915050565b6000819050919050565b620004be81620004a9565b8114620004ca57600080fd5b50565b600081519050620004de81620004b3565b92915050565b600080600080600060a08688031215620005035762000502620002e2565b5b600086015167ffffffffffffffff811115620005245762000523620002e7565b5b620005328882890162000438565b955050602086015167ffffffffffffffff811115620005565762000555620002e7565b5b620005648882890162000438565b9450506040620005778882890162000492565b93505060606200058a88828901620004cd565b92505060806200059d88828901620004cd565b9150509295509295909350565b600081519050919050565b7f4e487b7100000000000000000000000000000000000000000000000000000000600052602260045260246000fd5b60006002820490506001821680620005fd57607f821691505b602082108103620006135762000612620005b5565b5b50919050565b60008190508160005260206000209050919050565b60006020601f8301049050919050565b600082821b905092915050565b6000600883026200067d7fffffffffffffffffffffffffffffffffffffffffffffffffffffffffffffffff826200063e565b6200068986836200063e565b95508019841693508086168417925050509392505050565b6000819050919050565b6000620006cc620006c6620006c084620004a9565b620006a1565b620004a9565b9050919050565b6000819050919050565b620006e883620006ab565b62000700620006f782620006d3565b8484546200064b565b825550505050565b600090565b6200071762000708565b62000724818484620006dd565b505050565b5b818110156200074c57620007406000826200070d565b6001810190506200072a565b5050565b601f8211156200079b57620007658162000619565b62000770846200062e565b8101602085101562000780578190505b620007986200078f856200062e565b83018262000729565b50505b505050565b600082821c905092915050565b6000620007c060001984600802620007a0565b1980831691505092915050565b6000620007db8383620007ad565b9150826002028217905092915050565b620007f682620005aa565b67ffffffffffffffff81111562000812576200081162000307565b5b6200081e8254620005e4565b6200082b82828562000750565b600060209050601f8311600181146200086357600084156200084e578287015190505b6200085a8582620007cd565b865550620008ca565b601f198416620008738662000619565b60005b828110156200089d5784890151825560018201915060208501945060208101905062000876565b86831015620008bd5784890151620008b9601f891682620007ad565b8355505b6001600288020188555050505b505050505050565b7f4e487b7100000000000000000000000000000000000000000000000000000000600052601160045260246000fd5b60006200090e82620004a9565b91506200091b83620004a9565b9250828201905080821115620009365762000935620008d2565b5b92915050565b600082825260208201905092915050565b7f73756363656564206d6178000000000000000000000000000000000000000000600082015250565b600062000985600b836200093c565b915062000992826200094d565b602082019050919050565b60006020820190508181036000830152620009b88162000976565b9050919050565b7f45524332303a206d696e7420746f20746865207a65726f206164647265737300600082015250565b6000620009f7601f836200093c565b915062000a0482620009bf565b602082019050919050565b6000602082019050818103600083015262000a2a81620009e8565b9050919050565b62000a3c81620004a9565b82525050565b600060208201905062000a59600083018462000a31565b92915050565b6115fd8062000a6f6000396000f3fe608060405234801561001057600080fd5b50600436106100ea5760003560e01c806395d89b411161008c578063a457c2d711610066578063a457c2d714610261578063a9059cbb14610291578063dd62ed3e146102c1578063e8315742146102f1576100ea565b806395d89b4114610209578063a0712d6814610227578063a3e6761014610243576100ea565b806323b872dd116100c857806323b872dd1461015b578063313ce5671461018b57806339509351146101a957806370a08231146101d9576100ea565b806306fdde03146100ef578063095ea7b31461010d57806318160ddd1461013d575b600080fd5b6100f761030f565b6040516101049190610d99565b60405180910390f35b61012760048036038101906101229190610e54565b6103a1565b6040516101349190610eaf565b60405180910390f35b6101456103c4565b6040516101529190610ed9565b60405180910390f35b61017560048036038101906101709190610ef4565b6103ce565b6040516101829190610eaf565b60405180910390f35b6101936103fd565b6040516101a09190610f63565b60405180910390f35b6101c360048036038101906101be9190610e54565b610414565b6040516101d09190610eaf565b60405180910390f35b6101f360048036038101906101ee9190610f7e565b61044b565b6040516102009190610ed9565b60405180910390f35b610211610493565b60405161021e9190610d99565b60405180910390f35b610241600480360381019061023c9190610fab565b610525565b005b61024b610589565b6040516102589190610ff9565b60405180910390f35b61027b60048036038101906102769190610e54565b6105af565b6040516102889190610eaf565b60405180910390f35b6102ab60048036038101906102a69190610e54565b610626565b6040516102b89190610eaf565b60405180910390f35b6102db60048036038101906102d69190611014565b610649565b6040516102e89190610ed9565b60405180910390f35b6102f96106d0565b6040516103069190610ed9565b60405180910390f35b60606003805461031e90611083565b80601f016020809104026020016040519081016040528092919081815260200182805461034a90611083565b80156103975780601f1061036c57610100808354040283529160200191610397565b820191906000526020600020905b81548152906001019060200180831161037a57829003601f168201915b5050505050905090565b6000806103ac6106d6565b90506103b98185856106de565b600191505092915050565b6000600254905090565b6000806103d96106d6565b90506103e68582856108a7565b6103f1858585610933565b60019150509392505050565b6000600560149054906101000a900460ff16905090565b60008061041f6106d6565b90506104408185856104318589610649565b61043b91906110e3565b6106de565b600191505092915050565b60008060008373ffffffffffffffffffffffffffffffffffffffff1673ffffffffffffffffffffffffffffffffffffffff168152602001908152602001600020549050919050565b6060600480546104a290611083565b80601f01602080910402602001604051908101604052809291908181526020018280546104ce90611083565b801561051b5780601f106104f05761010080835404028352916020019161051b565b820191906000526020600020905b8154815290600101906020018083116104fe57829003601f168201915b5050505050905090565b600654816105316103c4565b61053b91906110e3565b111561057c576040517f08c379a000000000000000000000000000000000000000000000000000000000815260040161057390611163565b60405180910390fd5b6105863382610ba9565b50565b600560009054906101000a900473ffffffffffffffffffffffffffffffffffffffff1681565b6000806105ba6106d6565b905060006105c88286610649565b90508381101561060d576040517f08c379a0000000000000000000000000000000000000000000000000000000008152600401610604906111f5565b60405180910390fd5b61061a82868684036106de565b60019250505092915050565b6000806106316106d6565b905061063e818585610933565b600191505092915050565b6000600160008473ffffffffffffffffffffffffffffffffffffffff1673ffffffffffffffffffffffffffffffffffffffff16815260200190815260200160002060008373ffffffffffffffffffffffffffffffffffffffff1673ffffffffffffffffffffffffffffffffffffffff16815260200190815260200160002054905092915050565b60065481565b600033905090565b600073ffffffffffffffffffffffffffffffffffffffff168373ffffffffffffffffffffffffffffffffffffffff160361074d576040517f08c379a000000000000000000000000000000000000000000000000000000000815260040161074490611287565b60405180910390fd5b600073ffffffffffffffffffffffffffffffffffffffff168273ffffffffffffffffffffffffffffffffffffffff16036107bc576040517f08c379a00000000000000000000000000000000000000000000000000000000081526004016107b390611319565b60405180910390fd5b80600160008573ffffffffffffffffffffffffffffffffffffffff1673ffffffffffffffffffffffffffffffffffffffff16815260200190815260200160002060008473ffffffffffffffffffffffffffffffffffffffff1673ffffffffffffffffffffffffffffffffffffffff168152602001908152602001600020819055508173ffffffffffffffffffffffffffffffffffffffff168373ffffffffffffffffffffffffffffffffffffffff167f8c5be1e5ebec7d5bd14f71427d1e84f3dd0314c0f7b2291e5b200ac8c7c3b9258360405161089a9190610ed9565b60405180910390a3505050565b60006108b38484610649565b90507fffffffffffffffffffffffffffffffffffffffffffffffffffffffffffffffff811461092d578181101561091f576040517f08c379a000000000000000000000000000000000000000000000000000000000815260040161091690611385565b60405180910390fd5b61092c84848484036106de565b5b50505050565b600073ffffffffffffffffffffffffffffffffffffffff168373ffffffffffffffffffffffffffffffffffffffff16036109a2576040517f08c379a000000000000000000000000000000000000000000000000000000000815260040161099990611417565b60405180910390fd5b600073ffffffffffffffffffffffffffffffffffffffff168273ffffffffffffffffffffffffffffffffffffffff1603610a11576040517f08c379a0000000000000000000000000000000000000000000000000000000008152600401610a08906114a9565b60405180910390fd5b610a1c838383610cff565b60008060008573ffffffffffffffffffffffffffffffffffffffff1673ffffffffffffffffffffffffffffffffffffffff16815260200190815260200160002054905081811015610aa2576040517f08c379a0000000000000000000000000000000000000000000000000000000008152600401610a999061153b565b60405180910390fd5b8181036000808673ffffffffffffffffffffffffffffffffffffffff1673ffffffffffffffffffffffffffffffffffffffff16815260200190815260200160002081905550816000808573ffffffffffffffffffffffffffffffffffffffff1673ffffffffffffffffffffffffffffffffffffffff168152602001908152602001600020600082825401925050819055508273ffffffffffffffffffffffffffffffffffffffff168473ffffffffffffffffffffffffffffffffffffffff167fddf252ad1be2c89b69c2b068fc378daa952ba7f163c4a11628f55a4df523b3ef84604051610b909190610ed9565b60405180910390a3610ba3848484610d04565b50505050565b600073ffffffffffffffffffffffffffffffffffffffff168273ffffffffffffffffffffffffffffffffffffffff1603610c18576040517f08c379a0000000000000000000000000000000000000000000000000000000008152600401610c0f906115a7565b60405180910390fd5b610c2460008383610cff565b8060026000828254610c3691906110e3565b92505081905550806000808473ffffffffffffffffffffffffffffffffffffffff1673ffffffffffffffffffffffffffffffffffffffff168152602001908152602001600020600082825401925050819055508173ffffffffffffffffffffffffffffffffffffffff16600073ffffffffffffffffffffffffffffffffffffffff167fddf252ad1be2c89b69c2b068fc378daa952ba7f163c4a11628f55a4df523b3ef83604051610ce79190610ed9565b60405180910390a3610cfb60008383610d04565b5050565b505050565b505050565b600081519050919050565b600082825260208201905092915050565b60005b83811015610d43578082015181840152602081019050610d28565b60008484015250505050565b6000601f19601f8301169050919050565b6000610d6b82610d09565b610d758185610d14565b9350610d85818560208601610d25565b610d8e81610d4f565b840191505092915050565b60006020820190508181036000830152610db38184610d60565b905092915050565b600080fd5b600073ffffffffffffffffffffffffffffffffffffffff82169050919050565b6000610deb82610dc0565b9050919050565b610dfb81610de0565b8114610e0657600080fd5b50565b600081359050610e1881610df2565b92915050565b6000819050919050565b610e3181610e1e565b8114610e3c57600080fd5b50565b600081359050610e4e81610e28565b92915050565b60008060408385031215610e6b57610e6a610dbb565b5b6000610e7985828601610e09565b9250506020610e8a85828601610e3f565b9150509250929050565b60008115159050919050565b610ea981610e94565b82525050565b6000602082019050610ec46000830184610ea0565b92915050565b610ed381610e1e565b82525050565b6000602082019050610eee6000830184610eca565b92915050565b600080600060608486031215610f0d57610f0c610dbb565b5b6000610f1b86828701610e09565b9350506020610f2c86828701610e09565b9250506040610f3d86828701610e3f565b9150509250925092565b600060ff82169050919050565b610f5d81610f47565b82525050565b6000602082019050610f786000830184610f54565b92915050565b600060208284031215610f9457610f93610dbb565b5b6000610fa284828501610e09565b91505092915050565b600060208284031215610fc157610fc0610dbb565b5b6000610fcf84828501610e3f565b91505092915050565b6000610fe382610dc0565b9050919050565b610ff381610fd8565b82525050565b600060208201905061100e6000830184610fea565b92915050565b6000806040838503121561102b5761102a610dbb565b5b600061103985828601610e09565b925050602061104a85828601610e09565b9150509250929050565b7f4e487b7100000000000000000000000000000000000000000000000000000000600052602260045260246000fd5b6000600282049050600182168061109b57607f821691505b6020821081036110ae576110ad611054565b5b50919050565b7f4e487b7100000000000000000000000000000000000000000000000000000000600052601160045260246000fd5b60006110ee82610e1e565b91506110f983610e1e565b9250828201905080821115611111576111106110b4565b5b92915050565b7f73756363656564206d6178000000000000000000000000000000000000000000600082015250565b600061114d600b83610d14565b915061115882611117565b602082019050919050565b6000602082019050818103600083015261117c81611140565b9050919050565b7f45524332303a2064656372656173656420616c6c6f77616e63652062656c6f7760008201527f207a65726f000000000000000000000000000000000000000000000000000000602082015250565b60006111df602583610d14565b91506111ea82611183565b604082019050919050565b6000602082019050818103600083015261120e816111d2565b9050919050565b7f45524332303a20617070726f76652066726f6d20746865207a65726f2061646460008201527f7265737300000000000000000000000000000000000000000000000000000000602082015250565b6000611271602483610d14565b915061127c82611215565b604082019050919050565b600060208201905081810360008301526112a081611264565b9050919050565b7f45524332303a20617070726f766520746f20746865207a65726f20616464726560008201527f7373000000000000000000000000000000000000000000000000000000000000602082015250565b6000611303602283610d14565b915061130e826112a7565b604082019050919050565b60006020820190508181036000830152611332816112f6565b9050919050565b7f45524332303a20696e73756666696369656e7420616c6c6f77616e6365000000600082015250565b600061136f601d83610d14565b915061137a82611339565b602082019050919050565b6000602082019050818103600083015261139e81611362565b9050919050565b7f45524332303a207472616e736665722066726f6d20746865207a65726f20616460008201527f6472657373000000000000000000000000000000000000000000000000000000602082015250565b6000611401602583610d14565b915061140c826113a5565b604082019050919050565b60006020820190508181036000830152611430816113f4565b9050919050565b7f45524332303a207472616e7366657220746f20746865207a65726f206164647260008201527f6573730000000000000000000000000000000000000000000000000000000000602082015250565b6000611493602383610d14565b915061149e82611437565b604082019050919050565b600060208201905081810360008301526114c281611486565b9050919050565b7f45524332303a207472616e7366657220616d6f756e742065786365656473206260008201527f616c616e63650000000000000000000000000000000000000000000000000000602082015250565b6000611525602683610d14565b9150611530826114c9565b604082019050919050565b6000602082019050818103600083015261155481611518565b9050919050565b7f45524332303a206d696e7420746f20746865207a65726f206164647265737300600082015250565b6000611591601f83610d14565b915061159c8261155b565b602082019050919050565b600060208201905081810360008301526115c081611584565b905091905056fea2646970667358221220c247070dac01fcc4c6aaf11b386c7d936474140861e98a1f30e7745d21d2ad9964736f6c63430008130033",
  "linkReferences": {},
  "deployedLinkReferences": {}
}